:020000040800F2
:10000000005000207D3E0008C53E0008C53E0008A7
:10001000C53E0008C53E0008C53E000800000000BF
:10002000000000000000000000000000C53E0008C5
:10003000C53E000800000000C53E00083732000839
:10004000C53E0008C53E0008C53E0008C53E000884
:10005000C53E0008C53E0008253300082B330008C4
:1000600031330008373300083D330008C53E00082F
:10007000C53E0008C53E0008C53E0008C53E000854
:10008000C53E0008C53E0008C53E0008C53E000844
:10009000C53E0008C53E0008C53E000843330008C1
:1000A000C53E0008892F0008C53E00089D2F0008A6
:1000B000A12F0008B52F0008C92F0008BD050008B2
:1000C000C9050008D5050008E1050008C53E00087F
:1000D000C53E0008893C0008A13C0008BD3C000862
:1000E0006B330008C53E0008C53E00080000000054
:1000F0000000000000000000000000000000000000
:0C01000000000000000000005FF808F1A3
:10010C0010B5054C237833B9044B13B10448AFF345
:10011C0000800123237010BD8C0000200000000023
:10012C00F447000808B5034B1BB103490348AFF370
:10013C00008008BD0000000090000020F44700087B
:10014C00704710B504460121C02003F095FF002133
:10015C00C12003F091FF2146C62003F0C1FE01210E
:10016C00C22003F089FF0021C32003F085FF214644
:10017C00BDE81040C72003F0B3BE000008B5012154
:10018C00C02003F01BFF0121C12003F017FF012148
:10019C00C22003F013FF0121C32003F00FFF012144
:1001AC00C62003F00BFFC720012103F007FF034B10
:1001BC001868BDE80840FFF7C4BF00BF000000206E
:1001CC0000207047028BC08A101A70470346C28AFF
:1001DC00018B914281BF0169885C0132DA8298BF40
:1001EC004FF0FF307047028BC38A9A4286BF026978
:1001FC00D05C4FF0FF307047836810B5044613B1E4
:10020C00032201469847204610BD000070B54FF4FC
:10021C007A730E460021C0E90113034615462B4A9A
:10022C00044643F8C42BC0F8C4109C22C3E9011146
:10023C00C0E93411C0E93611C0F8E010283004F0E0
:10024C00E7F9F3B2222B19D8214A06F4E06652F8EA
:10025C0023301E43EBB2222BC4F8846022D81C4AF4
:10026C0005F4E06552F823301D4300232046C4F802
:10027C008850E36123842361A38270BD06F0C00221
:10028C00C02A0CD1C92B0AD8124B06F03F0253F8E6
:10029C0022200F4B06F4E06653F82230D9E74FF0DA
:1002AC00FF36D7E705F0C002C02A0CD1C92B0AD8FB
:1002BC00084B05F03F0253F82220054B05F4E0658E
:1002CC0053F82230D0E74FF0FF35CEE71448000842
:1002DC00544B00082C4B000838B50446283000F06D
:1002EC00A9F8E06918B104F0A7F80023E361002530
:1002FC002069258410B104F09FF82561A58238BDD2
:10030C0038B505460446074B45F8D43BFFF7E4FFE8
:10031C002846FFF771FF04F1C400FFF76DFF20467C
:10032C0038BD00BF14480008B1F5806F70B50546A4
:10033C000C4610D8038C99420AD920290E4638BF96
:10034C002026C069314604F02DF918B1E8612E84DD
:10035C00204670BDFEE70024FAE713B590F8243070
:10036C0004468DF807107BB1418C0131FFF7DCFF9F
:10037C0040B10120638C9DF80710E269D154638C65
:10038C000133638402B010BD01220DF10701283046
:10039C0000F08EF8B0FA80F04009F3E770B590F8F1
:1003AC00243004460E46154693B1418C1144FFF798
:1003BC00BBFF10B90025284670BD638CE0692A4646
:1003CC001844314604F062F9638C2B446384F2E7E1
:1003DC0092B2283000F06CF80028EBD1EBE7034622
:1003EC00006918B100219A8A04F012B970470346CB
:1003FC00C06918B100211A8C04F00AB9704738B5DD
:10040C0000250446C5820583FFF7E9FF2046658475
:10041C00FFF7EDFF38BD0000032202210148FFF772
:10042C00F5BE00BFA80000200148FFF769BF00BF60
:10043C00A800002010B5044690F9640000F06AF999
:10044C0094F9650000F066F9201D00F024FA0321F0
:10045C00206E03F043F90321E06D03F03FF92368AC
:10046C00104A93420DD1104B1A6942F400121A61D2
:10047C001A6922F400121A61DA6922F40012DA61A4
:10048C0010BD0A4A9342FBD1074B1A6942F4800211
:10049C001A611A6922F480021A61DA6922F4800264
:1004AC00EDE700BF0054004000100240005800402F
:1004BC00202A30B514D800239CB2A24207D890F859
:1004CC0094301344DBB280F89430002030BD90F8A7
:1004DC009440CD5C1C44044484F874500133EBE725
:1004EC000120F3E770B590F891300446012B0D46CE
:1004FC00A0F1040609D1436E3BB1836E3046984798
:10050C00022384F89130002363668DB9E36E84F87E
:10051C0091501BB1304684F890509847204694F87F
:10052C00902004F170012023BDE8704000F0CCB99C
:10053C0000230122636684F89120616E2046743199
:10054C0031440423BDE8704000F0F9B910B590F8BF
:10055C0091300446012B04D1436E13B1836E0438E1
:10056C009847022384F89130002320466366BDE847
:10057C00104000F01FBA436E1F2BDEBF436E0133D9
:10058C00436690F89130012BDAB205D1416E042309
:10059C007031014400F0D3B97047002380F89030DB
:1005AC00704790F892300BB900F004BA7047000015
:1005BC00014B186800F07EBB8C010020014B1868C1
:1005CC0000F0D2BF8C010020014B586800F072BBC8
:1005DC008C010020014B586800F0C6BF8C01002034
:1005EC007047000038B50E4B05461A784FF47A73F5
:1005FC00B3FBF2F30B4A1068B0FBF3F000F09CF87D
:10060C00044658B90F2D09D8024629464FF0FF3041
:10061C0000F042F82046044B1D6038BD0120FCE779
:10062C00040000202800002008000020074A08B51C
:10063C001368032043F01003136000F01BF8002034
:10064C00FFF7D0FFFFF7CCFF002008BD00200240D1
:10065C00034A044B11681B780B441360704700BFAE
:10066C009401002004000020014B1868704700BF63
:10067C009401002007490302CA6803F4E06322F4E2
:10068C00E0621204120C134343F0BF6343F40033D3
:10069C00CB60704700ED00E0154B30B5DC68C4F35F
:1006AC000224C4F10703251D042B28BF0423062DA7
:1006BC004FF0FF3594BF0024033C05FA03F321EA05
:1006CC000303A54022EA0502A340002843EA0203E3
:1006DC00ACBF00F16040074A4FEA0313DBB2ABBF7B
:1006EC0000F5614000F00F0080F80033135430BD6A
:1006FC0000ED00E014ED00E0002807DB01234109C8
:10070C00034A00F01F00834042F82130704700BFBD
:10071C0000E100E000280CDB01220649430900F04F
:10072C001F008240203341F82320BFF34F8FBFF3CB
:10073C006F8F704700E100E00138B0F1807F0BD281
:10074C004FF0E023F021054A586182F82310002075
:10075C00072298611A6170470120704700ED00E094
:10076C00002808DB01224309034900F01F008240E6
:10077C00603341F82320704700E100E0704708B572
:10078C00FFF7FCFF08BD704710B5044650B1437924
:10079C0003F0FF0213B90271FFF7F5FF01230020EC
:1007AC00637110BD0120FCE790F821200346022A5A
:1007BC0006D0042282630120002283F82020704797
:1007CC000268C06B116821F00E011160116821F0F4
:1007DC000101116001211A6C01FA02F24260002041
:1007EC0083F82110E8E7000008B590F82130022BBF
:1007FC0003D004238363012008BD03681A6822F028
:10080C000E021A601A6822F001021A60174A93420B
:10081C001FD0143293421ED0143293421DD0143286
:10082C0093421DD0143293421DD01432934214BF04
:10083C004FF080734FF480130D4A5360012380F8FE
:10084C002130002380F82030436B03B198470020FF
:10085C00D2E70123F0E71023EEE74FF48073EBE7C8
:10086C004FF48053E8E74FF48033E5E7080002408B
:10087C000000024090F8210070470000044A08B5BF
:10088C005169014202D0506102F030FD08BD00BF39
:10089C0000040140704710B5044698B12423026847
:1008AC0080F83D30136823F001031360FFF7F2FF6B
:1008BC000020206484F83C0084F83D00206384F818
:1008CC003E0010BD0120FCE737B5044690F83D0012
:1008DC0000F02800282830D100292CD0002A2AD05A
:1008EC0094F83C00012828D025682868C0075EBF12
:1008FC00286840F001002860286820F40060286017
:10090C00292084F83D00202084F83E00002020643B
:10091C006285628DE36201906B6961620193AB69E0
:10092C0084F83C000193019B6B68228543F4E063DF
:10093C006B6003B030BD0120FBE70220F9E737B54F
:10094C00044690F83D0000F02800282830D10029FA
:10095C002CD0002A2AD094F83C00012828D02568F5
:10096C002868C0075EBF286840F00100286028682E
:10097C0020F4006028602A2084F83D00202084F8B0
:10098C003E00002020646285628DE36201906B69F9
:10099C0061620193AB6984F83C000193019B6B6825
:1009AC00228543F4E0636B6003B030BD0120FBE7AC
:1009BC000220F9E790F83D30202B14D1282380F841
:1009CC003D30036800201A68D2075EBF1A6842F0F7
:1009DC0001021A601A6842F480621A605A6842F482
:1009EC0040725A60704702207047704770477047DA
:1009FC0090F83D2008B5036DD2B283B9C36C026880
:100A0C00012B836C05D1DBB21361036D02330365DB
:100A1C0008BDC3F307231361036D0133F7E7036DBF
:100A2C00012B03D1836C0268DBB2F4E7036D022B5C
:100A3C002FD1222A05D10268136843F48073136006
:100A4C00EAE7438D9BB263B1212A0AD1436A02685B
:100A5C0013F8011B11614362438D013B9BB243852B
:100A6C00D6E7438D9BB2002BD2D1212AD0D102687C
:100A7C00516821F4E0615160116841F4007111601A
:100A8C002022036380F83D2080F83E30FFF7AFFF53
:100A9C00BEE703685A69120644BF00221A61B7E721
:100AAC0070477047002337B546F2A81101932C4BC1
:100ABC00406A1B6890F83D20B3FBF1F323214B43B4
:100ACC0001930368D2B2019941BB016C41F0200142
:100ADC000164446B0CB10021A162816B09B100254A
:100AEC008D621D6825F480651D600025458504B167
:100AFC00656301B14D63196821F00101196090F82B
:100B0C003D10602911D1202380F83D30002380F85E
:100B1C003E300364FFF7C5FF03B030BD01990139C6
:100B2C00019119688905CED4D3E702F02802282A4E
:100B3C000ED1196841F001011960196841F4806106
:100B4C0019600023036380F83D20FFF72AFDE3E7DB
:100B5C00202380F83D30002380F83E30F5E700BFBD
:100B6C002800002010B590F83D2090F83E30044647
:100B7C00102BD9B2D2B2036801D0402913D1222A4A
:100B8C0011D1196821F400611960596811F40061E0
:100B9C0006D1602A1EBF202284F83D2084F83E1026
:100BAC000022226307E002F028012829EDD100225F
:100BBC00226384F83D105A6812F400624FD05A68D0
:100BCC00606B22F400625A6090F82130012B374B95
:100BDC002BD04363FFF708FE50B12268606B13689B
:100BEC0023F001031360202384F83D30436B9847B6
:100BFC00236C19071FBF2268536823F4E06353600A
:100C0C0094F83D30226CDBB252070DD5282B0BD15A
:100C1C00274B2022E36200232046236384F83D20E7
:100C2C0084F83E30FFF792FC10BDA06B4363FFF7D6
:100C3C00DBFD0028DCD023685A69510605D51A69FA
:100C4C00636A1A70636A013363622268A06B13686B
:100C5C0023F001031360202384F83D30C6E794F899
:100C6C003D10602915D1202184F83D1022645A6969
:100C7C00520605D51A69636A1A70636A0133636296
:100C8C0022682046136823F001031360FFF709FF65
:100C9C00AEE75A69500605D51A69636A1A70636A19
:100CAC00013363622046FFF77CFCA1E7B10A000820
:100CBC000000FFFFF0B5044603688FB05A68C66A9F
:100CCC0090F83E0094F83D101028C5B2C9B202D07D
:100CDC00402D40F0E5829F69586910F0010F07D153
:100CEC00B6F52A0F02D0B6F12A4F51D10FB0F0BD94
:100CFC0096054DD5E26AB2F52A0F0CD10122E262BB
:100D0C0094F83E20402A11D1226D52B9626C02F047
:100D1C00FE021A61EAE7E26AB2F12A4FF0D1082228
:100D2C00EDE7626C42F00102D2B2F2E72269B2F551
:100D3C00804F1AD194F83D20212A626C11D102F017
:100D4C00FE021A61626B0AB1926A2AB9A26B002A7E
:100D5C00CCD0926A002AC9D05A6842F400625A6018
:100D6C00C4E742F00102D2B2EBE7226D32B9626CF9
:100D7C00D21102F0060242F0F002CAE7226D012AFB
:100D8C00B4D1626CD21102F0060242F0F102C0E75B
:100D9C00060703D5960501D5626CE4E7860740F19A
:100DAC00F080960540F1ED8094F83E10E26A256BD8
:100DBC0094F83D00C9B2222840F0DB80206D40B988
:100DCC00402906D100905A6900929B690093009BC0
:100DDC008CE7216D89B92069B0F5404F0DD1019197
:100DEC005A6901929A690192019A1A6842F48072C6
:100DFC001A60236D0133236578E7618D89B251B98F
:100E0C0002915A6902929A690292029A1A6842F401
:100E1C0000721A6019E0618D89B2012949D112F56D
:100E2C00803F1BD11A6822F480621A605A6812F44F
:100E3C0000620CD01A6822F480621A6000220392BD
:100E4C005A6903929B690393039B0023D3E7049293
:100E5C005A6904929A690492049AD7E7082A1CD01A
:100E6C00202A1AD0122D0DD1012A16D11A6822F47B
:100E7C0080621A60002205925A6905929B6905935B
:100E8C00059BE2E7102AF1D8864941FA02F2D7070E
:100E9C00ECD41A6842F48062EBE71A6822F48062A0
:100EAC001A60002206925A6906929A690692069A6C
:100EBC00ACE7618D89B2022938D1102A03D87A495E
:100ECC00D140CE0718D4196841F400611960002193
:100EDC00079159690791996907910799196821F444
:100EEC008061196059680D05AFD5202A1BD8072AD7
:100EFC000ED8012AA9D111E0196841F4806119605A
:100F0C000021089159690891996908910899E9E7B4
:100F1C00A2F10801654ACA40D00796D55A6842F436
:100F2C0080525A6091E712F5803FE3E7196841F46B
:100F3C00806119605968090510D5202A16D8072A2E
:100F4C0006D8012A0AD15A6842F480525A6005E048
:100F5C00A2F10801554ACA40D207F4D400220992E2
:100F6C005A6909929B690993099B6EE712F5803FB8
:100F7C00E8E700220A925A690A929B690A930A9B33
:100F8C00B4E67F0740F194805E6836053FF5AEAE5F
:100F9C00070600F004063ED550053CD5002E3DD189
:100FAC0094F83D20258D94F83E10D2B2E06AC9B277
:100FBC00C5B9212A18D1082858D0202856D010F5A8
:100FCC00803F53D05A6822F4E0625A6011232363A5
:100FDC00002384F83E302023204684F83D30FFF770
:100FEC0004FD83E6212A05D040297FF47FAE222A16
:100FFC007FF47CAE628D92B21AB95A6822F4806288
:10100C00ADE694F83E20402A16D120460FB0BDE83C
:10101C00F040FFF7EDBC002E3FF468AE97057FF56E
:10102C0065AE212939D1E16A94F83D20212A7FF45B
:10103C005DAE628D92B24AB1626A12F8011B1961FF
:10104C006262638D013B9BB263854FE608290DD02C
:10105C0020290BD011F5803F08D0596821F4E061AC
:10106C0059601123236384F83E20B4E75A68204664
:10107C0022F4E0625A601A6842F400721A6000238B
:10108C002022236384F83D2094F83E2084F83E30DF
:10109C00402AA4D1FFF7ABFC28E6402D7FF426AE06
:1010AC00B3E700BFEBFFFEFF1400010001010001DC
:1010BC0059680E053FF51AAE450600F0040140F1E3
:1010CC008680500540F18380002940F0838094F89D
:1010DC003D20222A7FF40AAEE06A628D92B2032A86
:1010EC0014D91A69636A1A70636A01336362638D77
:1010FC00013B9BB26385638D9BB2032B7FF4F6ADF2
:10110C002268536823F480635360EFE5E56A022D8F
:10111C003FF473AF012A3FF670AF0B9146F2A81162
:10112C00794A1268B2FBF1F202EB82020B920B9A33
:10113C00013A0B920B99D1B9226C204642F0200255
:10114C0022645A6822F4E0625A601A69636A1A705F
:10115C00636A01336362638D013B9BB26385202319
:10116C0084F83D3084F83E10FFF71BFABEE51A6890
:10117C0012F40072DBD1196821F48061196059688E
:10118C0021F4E06159601969636A1970636A01336B
:10119C006362638D013B9BB26385202384F83D30F1
:1011AC0094F83E3084F83E20402B04D12263204634
:1011BC00FFF776FC9AE5082801D0202801D10023FE
:1011CC0000E0122320462363FFF710FC8EE5002974
:1011DC003FF48CAD92057FF589ADE26A608D616A52
:1011EC0080B2042809D15A6822F480625A601B69C3
:1011FC000B70636A0133636223E7608D80B203284E
:10120C000CD15868042A20F480605860EFD0022A70
:10121C00EDD01A6822F480621A60E8E7608D80B223
:10122C000228E4D1042A33D007D8012A07D0022A95
:10123C002ED0186840F4007004E0102AF9D1186818
:10124C0020F4806018601B690B70616A4B1C636230
:10125C00638D013B9BB2638523681B694B70636A8A
:10126C00216801336362638D013B9BB263854B68DC
:10127C0023F440734B60202384F83D3094F83E30C7
:10128C00402B4FF0000384F83E3005D123638EE7EA
:10129C00186840F48060D5E7082A90D0202A8DE7A2
:1012AC00206C20B30025586987072FD596052DD5BE
:1012BC00226C02B19D6994F83D2002F02802282A84
:1012CC0018D15A682F0622F480625A604FF000033E
:1012DC0054BFE268A269C5F3800181F00101204688
:1012EC00C9B284F83C3092B2FFF7FCF8FEE49D6979
:1012FC005869D9E700220C9259690C919B6984F8C2
:10130C003C200C930C9BF1E428000020C60640F115
:10131C00B180950540F1AE8094F83D505A68EDB21D
:10132C0022F4E0625A6000220D925A690D921A68FA
:10133C0042F001021A600D9A1A6822F480621A6057
:10134C005A68100520D505F0F702222A4AD1A06B65
:10135C000268526892B26285628D92B21AB1226CA6
:10136C0042F0040222645A6822F400625A60FFF7C9
:10137C0081FA012808D0A06B794B4363FFF734FA4C
:10138C0010B1A06B436B9847638D9BB213B323686A
:10139C005A69510709D51A69636A1A70636A01336D
:1013AC006362638D013B9BB2638523685A69520665
:1013BC0009D51A69636A1A70636A01336362638DB3
:1013CC00013B9BB26385638D9BB21BB1236C43F0D5
:1013DC0004032364236C13B320460FB0BDE8F04024
:1013EC00FFF7C0BB606B0268526892B26285628D77
:1013FC0092B21AB1226C42F0040222645A6822F4AE
:10140C0000625A60FFF736FA0128BDD0606B544B6E
:10141C004363FFF7E9F90028B6D0606BB2E72A2DD9
:10142C0006D123632823204684F83D30FFF7A3F828
:10143C0094F83D30282B0CD14A4B2022E362002338
:10144C002046236384F83D2084F83E30FFF77EF875
:10145C004CE4236B222B02D0222D7FF447AC0023CB
:10146C002022236384F83D2084F83E302046FFF789
:10147C0082F83BE401F0F701212900F0040535D195
:10148C00070627D5560525D53DBB94F83D00628D42
:10149C00C0B292B2002A3FF429AC626A12F8015B26
:1014AC001D616262628D013A92B26285628D92B266
:1014BC00002A7FF41BAC29287FF418AC5A6820460C
:1014CC0022F480625A602823216384F83D30FFF7B0
:1014DC0064F80BE4002D3FF409AC95057FF506ACE0
:1014EC00628D92B2002A3FF401ACA5E5400627D5E7
:1014FC00510525D53DBB94F83D20618DD2B289B202
:10150C0000293FF4F3AB1969636A1970636A0133FC
:10151C006362638D013B9BB26385638D9BB2002B31
:10152C007FF4E4AB2A2A7FF4E1AB2268536823F4FE
:10153C008063536022232363282384F83D3095E78E
:10154C00002D3FF4D3AB92057FF5D0AB628D92B2F8
:10155C00002A3FF4CBAB1A69636A1A7049E600BFE4
:10156C00B10A00080000FFFFF8B5036804465F6984
:10157C005E6890F83E2017F48075D2B20AD016F44B
:10158C00807507D06FF4807101255961196841F499
:10159C0000411960B80506D5F10542BF6FF4007122
:1015AC0045F002055961780536D5F10534D5608DC5
:1015BC0094F83D10202AD4F830C080B2C9B25FD163
:1015CC0000285DD101F0F700212804D0282957D13B
:1015DC00BCF1210F54D194F83D20E16AD2B2082914
:1015EC0001D020292AD1282A28D12E4A2046E2626D
:1015FC005A6822F4E0625A606FF480625A611A6889
:10160C0022F480621A6000232022236384F83D2098
:10161C0084F83E30FEF79AFF3A053FD5F3053DD5E9
:10162C006FF40062236845F008055A61236C20466C
:10163C001D432564BDE8F840FFF794BA212A1BD15D
:10164C001849E16222630021202284F83D2084F8AD
:10165C003E105A6822F4E0625A606FF480625A615C
:10166C001A6822F480621A605A69100648BF196120
:10167C002046FEF792FFCFE76FF480625A61CBE70A
:10168C006FF48061102A596145F0040501D0402A9D
:10169C00C2D11A6842F400721A60BDE7002DC5D1A0
:1016AC00F8BD00BF0000FFFF2DE9F341054638B33C
:1016BC000368DB0710D42B689F075ED42B681907CF
:1016CC0000F195802B685A0700F1C180EB69002B63
:1016DC0040F02C81002029E0904C636803F00C034F
:1016EC00042B07D0636803F00C03082B0AD1636842
:1016FC00DE0307D523689C03DDD56B68002BDAD19C
:10170C00012013E06B68B3F5803F12D1236843F4DA
:10171C0080332360FEF7A8FF064623689803CAD4DB
:10172C00FEF7A2FF801B6428F7D9032002B0BDE8A6
:10173C00F0819BB9236823F480332360236823F45E
:10174C0080232360FEF790FF064623689903B2D5E9
:10175C00FEF78AFF801B6428F7D9E6E7B3F5A02FC4
:10176C00236803D143F480232360CFE723F4803331
:10177C002360236823F48023CBE7684C636813F061
:10178C000C0F07D0636803F00C03082B10D16368AF
:10179C00DA030DD423689B0702D52B69012BAFD13B
:1017AC0023686A6923F0F80343EAC203236085E7E0
:1017BC002A695B4B6AB101221A60FEF755FF064697
:1017CC0023689F07ECD4FEF74FFF801B0228F7D944
:1017DC00ABE71A60FEF748FF0646236898077FF5CB
:1017EC006DAFFEF741FF801B0228F6D99DE7AA6971
:1017FC004A4E4B4BE2B10122C3F88024FEF734FF72
:10180C000446736A9B070DD54FF4FA52454B1B687F
:10181C00B3FBF2F3019300BF019B5A1E0192002B04
:10182C00F9D14FE7FEF720FF001B0228E9D97CE72E
:10183C00C3F88024FEF718FF0446736A9F077FF5F0
:10184C0041AFFEF711FF001B0228F6D96DE7334CB0
:10185C00E369D80024D40127E36943F08053E361A2
:10186C00E36903F080530093009B2F4E3368D90536
:10187C0018D5EB68012B26D1236A43F001032362B0
:10188C00FEF7F2FE41F288380646236A9B073FD5E5
:10189C00002F3FF41BAFE36923F08053E36115E79E
:1018AC000027E2E7336843F480733360FEF7DCFE15
:1018BC0080463368DA05DCD4FEF7D6FEA0EB0800D0
:1018CC006428F6D931E7ABB9236A41F2883823F0A2
:1018DC0001032362236A23F004032362FEF7C4FE90
:1018EC000646236A9807D3D5FEF7BEFE801B4045FB
:1018FC00F7D91AE7052B236A03D143F004032362BB
:10190C00BAE723F001032362236A23F00403B6E74A
:10191C00FEF7AAFE801B4045B7D906E7001002402F
:10192C000000424228000020007000402A4C6268EF
:10193C0002F00C02082A3ED00022022B274B1A661A
:10194C002CD1FEF791FE06462368990120D42B6A10
:10195C00B3F5803F05D16268A96822F400320A43CE
:10196C006260696A62680B4322F4741213430122A9
:10197C0063601A4B1A66FEF777FE054623689A01D8
:10198C003FF5A8AEFEF770FE401B0228F6D9CCE658
:10199C00FEF76AFE801B0228D6D9C6E6FEF764FE67
:1019AC00054623689B017FF595AEFEF75DFE401B57
:1019BC000228F6D9B9E6012B3FF4A2AE60682B6A77
:1019CC0000F480329A427FF49BAE6B6A00F4701084
:1019DC00C01A18BF0120A9E60010024000004242C4
:1019EC000D4A536803F00C01082912D10B48C3F3BC
:1019FC008341DB03405C09D55368094AC3F3404378
:101A0C005043084AD35CB0FBF3F07047064B584385
:101A1C0070470348704700BF001002403A48000866
:101A2C0000127A003848000800093D002DE9F04109
:101A3C000D46044610B90120BDE8F081444A1368F4
:101A4C0003F007038B4228D321688E0730D4CA07D2
:101A5C0043D43F4A136803F00703AB4265D82268AE
:101A6C003C4D12F0040F6CD1130706D56B6822693C
:101A7C0023F4605343EAC2036B60FFF7B1FF6B685A
:101A8C00354AC3F30313D35CD840344B1860344B42
:101A9C001868FEF7A7FD0020CEE7136823F00703B4
:101AAC000B431360136803F007038B42C3D1CBE7DE
:101ABC00284B11F0040F1EBF5A6842F4E0625A60C2
:101ACC00080742BF5A6842F460525A605A68A068CC
:101ADC0022F0F00202435A60B9E762681D4E012AF7
:101AEC0033681AD113F4003FA5D0736841F28838DB
:101AFC0023F0030313437360FEF7B6FD07467368C8
:101B0C00626803F00C03B3EB820FA2D0FEF7ACFDBE
:101B1C00C01B4045F3D903208EE7022A02D113F0F3
:101B2C00007FE1E713F0020FDEE7136823F00703F1
:101B3C002B431360136803F00703AB427FF47BAFB6
:101B4C008DE76B68E16823F4E0630B436B608BE714
:101B5C000020024000100240A0480008280000208D
:101B6C0008000020044B054A5B68C3F30223D35CD6
:101B7C00034A1068D840704700100240984800088B
:101B8C0028000020044B054A5B68C3F3C223D35CD6
:101B9C00034A1068D840704700100240984800086B
:101BAC00280000200F2303600B4B5A6802F003023D
:101BBC0042605A6802F0F00282605A6802F4E062F5
:101BCC00C2605B68DB0803F4E0630361034B1B68D2
:101BDC0003F007030B607047001002400020024026
:101BEC0003682DE9F3410546D80720D5364CE36947
:101BFC00D9002AD40126E36943F08053E361E369F9
:101C0C0003F080530193019B304F3B68DA051ED5DE
:101C1C00236A13F440732ED1236A6A6823F4407349
:101C2C00134323621EB1E36923F08053E3612A68F6
:101C3C00910706D52449A8684B6823F44043034315
:101C4C004B60D30637D4002012E00026DCE73B685B
:101C5C0043F480733B60FEF707FD80463B68DB0571
:101C6C00D6D4FEF701FDA0EB08006428F6D90320BA
:101C7C0002B0BDE8F0816A6802F440729A42CBD09F
:101C8C000120134A236AC2F84004002023F4407157
:101C9C00DF07C2F840042162BED5FEF7E5FC41F235
:101CAC0088380746236A9807B6D4FEF7DDFCC01BBC
:101CBC004045F7D9DBE7044AE968536823F480030D
:101CCC000B435360BFE700BF0010024000700040A0
:101CDC0000004242036A026A70B522F001020262FD
:101CEC00446882690D6822F073022A438D6823F0E0
:101CFC0002032B430A4DA8420BD1CD6823F00803F5
:101D0C002B4324F44074D1E90556354323F00403E6
:101D1C002C43446082614A684263036270BD00BF19
:101D2C00002C0140036A026A70B522F480720262D0
:101D3C004468C2690D6822F073022A438D6823F44B
:101D4C00007343EA05230B4DA8420DD1CD6823F453
:101D5C00006343EA052324F44054D1E90556354386
:101D6C0023F4806344EA05144460C2614A68C26388
:101D7C00036270BD002C0140036A026A30B522F484
:101D8C00805202624468C2690D6822F4E64242EA5B
:101D9C0005228D6823F4005343EA0533064DA8420F
:101DAC0002BF4D6924F4804444EA85144460C26146
:101DBC004A680264036230BD002C014090F83D304B
:101DCC00012B1CD102230F4A80F83D30036893424B
:101DDC000AD0B3F1804F07D0A2F59432934203D0CE
:101DEC0002F58062934204D19A6802F00702062A37
:101DFC0003D01A6842F001021A60002070470120DB
:101E0C00704700BF002C014090F83C200346012A8B
:101E1C004FF0020009D01A6883F83D005161002090
:101E2C00012283F83C0083F83D20704770477047CF
:101E3C00036870B5DD681E690446B1070DD5AA07A5
:101E4C000BD56FF002021A61012202779B699B0786
:101E5C0069D001F010F900232377710710D56A07B8
:101E6C000ED56FF00402236820461A6102222277F5
:101E7C009B6913F4407F5CD001F0FDF800232377BD
:101E8C0033070FD528070DD56FF0080223682046BD
:101E9C001A6104222277DB69990750D001F0EBF824
:101EAC0000232377F20610D5EB060ED56FF0100247
:101EBC00236820461A6108222277DB6913F4407FDD
:101ECC0043D001F0D8F800232377F00708D5E907B1
:101EDC0006D56FF00102236820461A6101F0A8F8BC
:101EEC00320608D52B0606D56FF0800223682046F3
:101EFC001A6100F004FB700608D5690606D56FF070
:101F0C004002236820461A61FFF791FFB20622D5E2
:101F1C00AB0620D56FF0200223682046BDE8704048
:101F2C001A6100F0EBBA01F0A4F82046FFF77EFF2F
:101F3C0091E701F09EF82046FFF778FF9EE701F04D
:101F4C0098F82046FFF772FFAAE701F092F82046B6
:101F5C00FFF76CFFB7E770BD174A036890420AD0D1
:101F6C00B0F1804F07D0A2F59432904203D002F525
:101F7C008062904207D14A6823F070031343CA6809
:101F8C0023F4407313434A6923F080031343036023
:101F9C008B68C3620B688362074B984204BF0B6962
:101FAC000363012343610369DB0742BF036923F029
:101FBC0001030361704700BF002C014010B50446BB
:101FCC0030B390F83D3003F0FF021BB980F83C2091
:101FDC0001F05EFD0223206884F83D30211DFFF7DF
:101FEC00BBFF0123002084F8463084F83E3084F88F
:101FFC003F3084F8403084F8413084F8423084F823
:10200C00433084F8443084F8453084F83D3010BDBA
:10201C000120FCE7036A026A70B522F0100202622A
:10202C00446882690D6822F4E64242EA05228D6812
:10203C0023F0200343EA05130B4DA8420DD1CD68C4
:10204C0023F0800343EA051324F44064D1E90556D8
:10205C00354323F0400344EA8504446082614A68B6
:10206C008263036270BD00BF002C014010B590F874
:10207C003C300446012B1DD0082A17D007D862B17A
:10208C00042A0FD00120002384F83C3010BD0C2A08
:10209C00F8D10068FFF770FE02E00068FFF71AFE47
:1020AC000020F0E70068FFF7B5FFF9E70068FFF7DD
:1020BC0039FEF5E70220E9E738B590F83C300446E4
:1020CC00012B4FD00120082A84F83C003AD006D8C6
:1020DC00BAB1042A26D0002384F83C3038BD0C2A2F
:1020EC00F9D12068FFF748FEC3690A6943F400631D
:1020FC00C361C36923F48063C361C36943EA0223E8
:10210C002EE02068FFF7E6FD83690A6943F00803B7
:10211C008361836923F004038361836913438361BF
:10212C000020D8E72068FFF775FF83690A6943F43C
:10213C0000638361836923F480638361836943EA69
:10214C000223ECE72068FFF7EDFDC3690A6943F051
:10215C000803C361C36923F00403C361C369134358
:10216C00C361DDE70220B9E770B5056A046A114E58
:10217C0024F001040462B042846916D0B0F1804F9F
:10218C0013D0A6F59436B0420FD006F58066B04257
:10219C000BD044F0010263F3071201F00A0125F0A1
:1021AC000A0319438261016270BD24F003042243C7
:1021BC00F1E700BF002C0140F8B590F83C30054623
:1021CC00012B0C4600F081800120082A85F83C0088
:1021DC005BD006D842B3042A35D0002385F83C30B6
:1021EC00F8BD0C2AF9D1D1E900272B68CE68186A02
:1021FC00196A120321F480511962D96920F4005034
:10220C0021F4407141EA072102F4005266F30F31C8
:10221C000243D9611A62DA69A16822F44062DA6178
:10222C00DA6942EA01224EE02868CB6806C9FFF75A
:10223C009BFF8369A26823F00C03836183691343BA
:10224C0083610020C9E72B68D1E90027186ACE68A2
:10225C00196A120121F010011962996920F0A0008D
:10226C0021F4407141EA072102F0A00266F30F311C
:10227C00024399611A629A69A16822F440629A61D8
:10228C009A6942EA01229A61DBE72B68D1E90021C5
:10229C00186A1E6AE76826F480761E62DE691202EE
:1022AC0026F00306314320F4007002F4007267F349
:1022BC0007110243D9611A62DA69A16822F00C0293
:1022CC00DA61DA690A43DA61BBE7022088E710B504
:1022DC000124036A01F01F018C4023EA040303620A
:1022EC00036A8A401A43026210BD000008B529B97E
:1022FC0090F83E30012B1DD001202EE0042907D18F
:10230C0090F83F30012BF7D1022380F83F3014E0D6
:10231C00082907D190F84030012BEDD1022380F829
:10232C0040300AE090F84130012BE5D1022380F8CF
:10233C00413002E0022380F83E3000680122FFF7B2
:10234C00C6FF0F4B984209D0B0F1804F0BD1836878
:10235C0003F00703062B0DD1002008BD436C43F49A
:10236C0000434364F3E7074B9842F0D003F58063D6
:10237C009842ECD0036843F001030360ECE700BF24
:10238C00002C014000040040FFF7B0BF08B5034625
:10239C0041BB90F83E0093F84220C0B20128D2B263
:1023AC004DD1012A1DD1022291BB83F83E2083F826
:1023BC00422018680122FFF78AFF224B98420AD06C
:1023CC00B0F1804F07D0A3F59433984203D003F5B6
:1023DC00806398422ED1836803F00703062B29D122
:1023EC00002008BD042905D190F83F0093F8432044
:1023FC00C0B2D3E708290BBF90F8400093F8410016
:10240C0093F8442093F845200CBFC0B2C0B2C5E786
:10241C00042904D183F83F2083F84320C9E7082915
:10242C000BBF83F8402083F8412083F8442083F8C5
:10243C004520BEE7036843F001030360D0E70120A9
:10244C00CFE700BF002C014010B50424036A01F053
:10245C000F018C4023EA04030362036A8A401A4387
:10246C00026210BD08B529B990F84230012B1DD07D
:10247C0001203EE0042907D190F84330012BF7D11D
:10248C00022380F8433014E0082907D190F8443037
:10249C00012BEDD1022380F844300AE090F845304E
:1024AC00012BE5D1022380F8453002E0022380F8AD
:1024BC00423000680422FFF7C7FF436C43F400432B
:1024CC0043640C4B98420AD0B0F1804F07D0A3F56F
:1024DC009433984203D003F58063984204D1836807
:1024EC0003F00703062B03D0036843F001030360DA
:1024FC00002008BD002C0140FFF7B4BF70477047A7
:10250C00026802F10C0353E8003F23F490730C3281
:10251C0042E8003102680029F2D102F1140353E8B9
:10252C00003F23F0010302F1140C4CE800310029A8
:10253C00F3D1036B012B0BD102F10C0353E8003FD9
:10254C0023F0100302F10C0C4CE800310029F3D1FC
:10255C00202380F8423000230363704790F8413009
:10256C00202B10D189B182B1C28482840023212214
:10257C0001620168436480F84120CA68184642F041
:10258C008002CA607047022070470120704708B56E
:10259C000023406AC385C38401F032FB08BD704739
:1025AC0090F8423007B5222B42D181680268B1F510
:1025BC00805F836A3FD1016900293FD15268C2F321
:1025CC00080223F8022B8362C38D013B9BB2C385A7
:1025DC00002B2DD10268D16821F02001D160D16887
:1025EC0021F48071D160516921F0010151612022E7
:1025FC0080F842204363026B012A026828D10363EE
:10260C0002F10C0353E8003F23F0100302F10C0C11
:10261C004CE800310029F3D11368DB0605D5019194
:10262C001368019353680193019B818DFFF7B7FFEA
:10263C0003B05DF804FB39B9016929B95268D2B20B
:10264C001A70836A0133BEE7526802F07F02F7E723
:10265C0001F0D0FAECE70000036873B51A68044681
:10266C001607D9685D6908D1960668D58D0666D5BA
:10267C0002B0BDE87040FFF793BF05F0010001F414
:10268C00907505435BD0D60705D5CD0542BF636C6D
:10269C0043F001036364530704D518B1636C43F032
:1026AC0002036364960704D518B1636C43F004030A
:1026BC006364150707D501F0200303431EBF636C49
:1026CC0043F008036364636C002B32D0920604D58C
:1026DC008B0602D52046FFF763FF266820467369F8
:1026EC00626C03F0400302F0080253EA020522D0A8
:1026FC00FFF706FF73695E0618D5226802F1140312
:10270C0053E8003F23F04003143242E80031002923
:10271C00F3D1E06B50B1744B4363FEF765F840B1F5
:10272C00E06B436B02B0BDE870401847204601F0E7
:10273C0067FA02B070BD01F063FA6564F9E7206BCB
:10274C00012840F09480D50640F19180C80640F1F4
:10275C008E80002201921A6801925A680192019AA5
:10276C005A6952064DD5E16B0A68526892B2002A3A
:10277C00DFD0A08D9042DCD9E2858A69202A36D040
:10278C0003F10C0252E8002F22F4807203F10C00CA
:10279C0040E800210029F3D103F1140252E8002F84
:1027AC0022F0010203F1140040E800210029F3D1CA
:1027BC0003F1140252E8002F22F0400203F114003E
:1027CC0040E800210029F3D1202284F84220216323
:1027DC0003F10C0252E8002F22F0100203F10C005E
:1027EC0040E800210029F3D1E06BFDF7DDFF022367
:1027FC006363E38DA18DC91A89B22046FFF7CFFE22
:10280C0097E7E28DE18D92B289B2002991D0A18D2A
:10281C00891A89B200298CD003F10C0252E8002FDE
:10282C0022F4907203F10C0545E800200028F3D146
:10283C0003F1140252E8002F22F0010203F11405F7
:10284C0045E800200028F3D1202284F842202063A0
:10285C0003F10C0252E8002F22F0100203F10C05D8
:10286C0045E800200028F3D102236363C5E7160670
:10287C0028D50D0626D594F84120212A7FF459AF8E
:10288C00A168226AB1F5805F17D12169A9B932F824
:10289C00021BC1F3080159602262E28C013A92B228
:1028AC00E284002A7FF445AFDA6822F08002DA6015
:1028BC00DA6842F04002DA603BE7511C2162127880
:1028CC005A60EAE750067FF534AF4A067FF531AF20
:1028DC00DA68204622F04002DA60202384F8413086
:1028EC0001F08BF925E700BF9B25000890F84030DC
:1028FC00012B11D02423026880F84130D36823F0D7
:10290C000C0343F00803D360202380F841300023EC
:10291C0080F84030184670470220704790F84030DD
:10292C00012B11D02423026880F84130D36823F0A6
:10293C000C0343F00403D360202380F841300023C0
:10294C0080F84030184670470220704790F84120BC
:10295C0090F84200104370470023C2854364222341
:10296C008285026980F84230816203681AB1DA68A4
:10297C0042F48072DA605A69002042F001025A6116
:10298C00DA6842F02002DA60704770B590F8426065
:10299C00202E07D141B13AB100240463FFF7DCFFCC
:1029AC00204670BD0220FCE70120FAE7836810B5D1
:1029BC0004462BB10322014698470023C4E9023395
:1029CC0010BD4B1E032B00D9FEE78900081F704772
:1029DC000139435C13F0100004D0022916D80C4ABC
:1029EC0032F81100DB0712D503290FD8DFE801F00C
:1029FC000205080B40F00100704740F010007047D2
:102A0C0040F48070704740F480507047FEE7704788
:102A1C00524800080139032900D9FEE7014B585CE4
:102A2C00704700BF4E4800080139032900D9FEE762
:102A3C00014B585C704700BF4A4800082DE9F04133
:102A4C000E460446FFF7BDFF06F106080546314663
:102A5C00204604EB0818FFF7DDFFD8F808302BB13F
:102A6C00C24323691A61DA680243DA60771E04EB09
:102A7C0047039B880B2B49D8DFE803F05118181833
:102A8C00060618184A4A4A2AE35DDE0604D529468A
:102A9C0004F11000FFF730FDE35DD80736D5294669
:102AAC0004F11000BDE8F041FFF76EBCE35DD90600
:102ABC0004D5294604F11000FFF7D4FCE35DDA07D6
:102ACC0024D5294604F11000BDE8F041FFF70EBCF7
:102ADC00294604F11000FFF759FC31462046FFF758
:102AEC00A3FF014606462046FFF772FF25692B6AB5
:102AFC001843D8F80830286243B131462046FFF716
:102B0C0089FFC3432B61EB681843E860BDE8F08193
:102B1C00294604F11000BDE8F041FFF737BC2369EA
:102B2C001B68DB07F2D404F11000BDE8F041FFF79D
:102B3C0045B970B5012504462946861C36F8023F76
:102B4C0023B129462046FFF779FF00210135052DD9
:102B5C00F4D1A36E3BB16FF0010223691A61DA68FC
:102B6C0042F00102DA6049B123691B68DB0705D426
:102B7C0004F11000BDE87040FFF720B970BD0000F3
:102B8C002DE9F0438DB0044698460F46FFF719FF28
:102B9C004FF6FF731646059305462369C0B95B6B68
:102BAC00002206930123CDE902329DF85030CDE985
:102BBC000922079208920B92019204930B2E1DD8B6
:102BCC00DFE806F00F1545484A5355575B596264C8
:102BDC00042801D19B6BE3E708280CBFDB6B1B6C53
:102BEC00DEE705922A4605A904F1100004E0102343
:102BFC002A46059305A9E018FFF738FA013F04EBC4
:102C0C0047039E8006B3B8F1FF3F1DD0404600F04D
:102C1C0081FFA84264D140463249083E00F01EFEB6
:102C2C00032E05D8404601F009F9002101F0C6F940
:102C3C0040462C4900F04CFE10F4801F0CBF0122C2
:102C4C001022E35D1343E3550DB0BDE8F083202360
:102C5C000593C7E73023FBE760232A4605A904F157
:102C6C0010000593FFF728FAC8E77023F5E7502307
:102C7C00EEE74023ECE7022301932A4601A904F175
:102C8C001000FFF799FAB9E70A23F5E74046154912
:102C9C0000F01EFE10F4801000D0FEE7012304F1BA
:102CAC0010092A46019001A948460293FFF784FABD
:102CBC0039462046FFF7B8FE431EE25C014642F05F
:102CCC000102E2540B2204EB43039A8002232046B8
:102CDC00CDE90133FFF775FE01A902464846D0E75E
:102CEC00FEE700BF28490008013903299ABF00EB11
:102CFC00410080880020704701211030FFF784B814
:102D0C000369186800F00100704710B502460C46C4
:102D1C00FFF7F6FF80B9CB68DB070ED5CB68104602
:102D2C0023F00103CB60FFF7E7FF6FF00103236192
:102D3C00E36843F00103E36010BD1046BDE81040AA
:102D4C00FFF7DABF0B4B98420BD0B0F1804F0AD093
:102D5C00A3F59433984208D003F58063984206D0CB
:102D6C00FEE70020704701207047022070470320C7
:102D7C00704700BF002C0140024670B5044652F863
:102D8C00100FFFF7DFFF0546104600F013FE00237F
:102D9C00084A04F1600642F82530E36004F1B005FE
:102DAC00B54204D0103D2846FDF726FAF8E7204638
:102DBC0070BD00BF98010020F8B504460846FFF727
:102DCC00C1FF236903B1FEE71B4D04F10C0245F86A
:102DDC0020200E2204F110063046C4E90C33C4E95D
:102DEC000E33C4E91033C4E91623216184F82C3066
:102DFC00A36484F84C3084F84D30E46000F096FD08
:102E0C0004F1600504F1B00728461035FFF7CEFD3C
:102E1C00BD42F9D100234FF6FF72C4E90033C4E977
:102E2C000632C4E90833A360636180233046A36291
:102E3C00BDE8F840FFF7C2B89801002010B586B085
:102E4C0014220446002101A801F0E2FB002369468C
:102E5C0001A80093FEF7A6FE206900F041FE0128B0
:102E6C0002D002280FD0FEE7049CFEF77BFEB4F5DF
:102E7C00C06F05D00BD824F48074B4F5806F00D1EA
:102E8C00400006B010BD059CFEF77CFEEFE7B4F5E4
:102E9C00E06FF4E7012A38B505460C460BD0022A40
:102EAC0016D004B1013C29692846CC62EC61BDE81E
:102EBC003840FFF72ABFFFF7C1FF084BB0FBF3F018
:102ECC0044432A69230C93620133B4FBF3F4E8E71F
:102EDC00FFF7B4FFB0FBF4F4F3E700BF40420F0080
:102EEC00F8B5054614461A46FFF76BFD2B69822A86
:102EFC009E6A074606F1010629D01FD8102A11D860
:102F0C0052BB4FF6FF722969CB6A934203D1B4F5D9
:102F1C00803F08BF1C4637BB4C632846BDE8F840D1
:102F2C00FFF7F3BE812AECD12846FFF787FF124B3F
:102F3C00B0FBF3F06043B0FBF6F4E2E7832AE0D198
:102F4C00DB6A03FB04436424B3FBF4F4D9E728469F
:102F5C00FFF774FF6643EEE7DB6A03FB04430124CF
:102F6C009440013CF0E7042F01D18C63D5E7082F86
:102F7C000CBFCC630C64D0E740420F00034B1868C5
:102F8C0010B10430FEF754BF704700BF9801002009
:102F9C00FFF7F4BF034B586810B10430FEF748BF7D
:102FAC00704700BF98010020034B986810B10430A3
:102FBC00FEF73EBF704700BF98010020034BD86856
:102FCC0010B10430FEF734BF704700BF98010020E9
:102FDC000022C0E90022C0E902227047F8B504467D
:102FEC000E4600F1600500F1B00728461035FFF7DA
:102FFC00EFFFBD42F9D10023204631462361FFF794
:10300C00DBFE2046F8BD826810B50AB901F0E8FB7A
:10301C00C368BDE81040184708B500B9FEE700F0DA
:10302C0083FC0068836E13B16030FFF7ECFF08BDC2
:10303C00FFF7F2BF10B500B9FEE7037F013B072B8A
:10304C0010D8DFE803F004140F100F0F0F12012437
:10305C0000F06AFC0068063400EB041083680BB1C6
:10306C00FFF7D1FF10BD0324F2E70424F0E702249C
:10307C00EEE7FFF7DFBFFFF7DDBF01F0D5B901F0D9
:10308C00DBB9000086B0042841D8DFE800F003105B
:10309C001C2834001F4B20489A6942F004029A61A4
:1030AC009B6903F004030193019B06B07047194B15
:1030BC001A489A6942F008029A619B6903F0080366
:1030CC000293029BF1E7134B15489A6942F01002E8
:1030DC009A619B6903F010030393039BE5E70D4B87
:1030EC0010489A6942F020029A619B6903F0200310
:1030FC000493049BD9E7074B0B489A6942F04002B2
:10310C009A619B6903F040030593059BCDE7002072
:10311C00CBE700BF0010024000080140000C01404A
:10312C000010014000140140001801402DE9F34744
:10313C008A46244999469046064600F0A7FBFFF7BD
:10314C0001FE214F054657F8203073B9B020FFF728
:10315C0094FF1C490446304600F098FB014620467B
:10316C00FFF73CFF57F825301C60164930461C68A9
:10317C0000F0AEFBC0F3C43529462046FFF7B4FD82
:10318C000428074607D0002304220093294633461F
:10319C002046FFF7F5FC022251462046FFF77AFE47
:1031AC004B46424629462046FFF79AFE042F05D08F
:1031BC00204602B0BDE8F047FFF7BBBC02B0BDE84B
:1031CC00F08700BF2849000898010020F8B5134982
:1031DC00064600F05BFBFFF7B5FD114F054657F8AF
:1031EC00203073B9B020FFF748FF0C490446304635
:1031FC0000F04CFB01462046FFF7F0FE57F8253057
:10320C001C601C6844B12046FFF7B6FD2046BDE8A3
:10321C00F840B021FFF733BFF8BD00BF28490008C4
:10322C0098010020FDF720BA704708B5FDF710FA99
:10323C00FDF7A5FAFFF7F8FF08BD70470F4B84B0F8
:10324C00DA6942F08052DA61DA6902F08052019256
:10325C00019A9A6942F001029A619A6902F001029C
:10326C000292029A5A6942F040025A615B6903F079
:10327C0040030393039B04B0704700BF001002404F
:10328C000C4BD3F8FC20D2015EBFD3F8FC2042F0EB
:10329C008072C3F8FC200022074B5A601A6842F077
:1032AC0001021A6000BF00BF00BF5868B0FA80F07E
:1032BC004009704700ED00E0001000E008B5FFF792
:1032CC00BDFFFFF7DDFFFDF7B1F9FFF7B6FF00F02B
:1032DC0027FDBDE808400148FDF756BA2000002044
:1032EC000023C0E90033C0E90233704700230128F2
:1032FC0003F101020AD11422DBB25343054A181D13
:10330C001044816829B11A441369184713464008C0
:10331C00EDE77047A80100200120FDF7AFBA0220AD
:10332C00FDF7ACBA0420FDF7A9BA0820FDF7A6BA40
:10333C001020FDF7A3BA08B52020FDF79FFA402016
:10334C00FDF79CFA8020FDF799FA4FF48070FDF799
:10335C0095FABDE808404FF40070FDF78FBA38B508
:10336C0006244FF48065A8B2FDF788FA013C4FEAB9
:10337C004505F8D138BD0000344A08B5104606237F
:10338C0000F8043BFFF7ACFF072302F1180013759C
:10339C00FFF7A6FF082302F12C0082F82830FFF774
:1033AC009FFF092302F1400082F83C30FFF798FFA1
:1033BC000A23172102F1540082F85030FFF790FFD6
:1033CC0002F1680082F86410FFF78AFF02F17C00BA
:1033DC0082F87810FFF784FF02F1900082F88C10CD
:1033EC00FFF77EFF02F1A40082F8A010FFF778FF30
:1033FC0082F8B410282102F1B800FFF771FF02F136
:10340C00CC0082F8C810FFF76BFF02F1E00082F8E5
:10341C00DC10FFF765FF02F1F40082F8F010FFF703
:10342C005FFF02F5847082F80411FFF759FF02F573
:10343C008E7082F81811FFF753FFBDE8084002F5B3
:10344C00987082F82C11FFF74BBF00BFA801002029
:10345C0038B5054CA4F5A075143C201DFCF7CCFE2A
:10346C00AC42F9D138BD00BFE80200207B4B82B0E2
:10347C009A69013842F001029A619B6903F00103D9
:10348C000193019B23282CD8DFE810F024002D0099
:10349C0034003B00400047004C00530058005F00D4
:1034AC0068006D0074007D008200890092009B0012
:1034BC00A000A700B000B500BC002B002B002B0017
:1034CC00C100C8002B002B002B002B00CD00D2001C
:1034DC00D900E000624A536843F0E06343F0010313
:1034EC00536002B070475E4A536823F0010343F007
:1034FC00E063F5E75A4A536843F0E06343F0020394
:10350C00EEE7574A536823F00203F0E7544A536836
:10351C0043F0E06343F00403E2E7514A536823F0BD
:10352C000403E4E74E4A536843F0E06343F00803B6
:10353C00D6E74B4A536823F00803D8E7484A536848
:10354C0043F0E06343F03003CAE7454A536823F085
:10355C00300343F0E06343F01003C1E7404A536883
:10356C0023F03003C3E73E4A536843F0E06343F073
:10357C00C003B5E73A4A536823F0C00343F0E06355
:10358C0043F04003ACE7364A536823F0C003AEE780
:10359C00334A536843F0E06343F44073A0E7304A86
:1035AC00536823F4407343F0E06343F4007397E7EC
:1035BC002B4A536823F4407343F0E06343F4807365
:1035CC008EE7274A536823F4407390E7244A5368E4
:1035DC0043F0E06343F4406382E7214A536823F4E9
:1035EC00406343F0E06343F4006379E71C4A53689B
:1035FC0023F440637BE71A4A536843F0E06343F4D7
:10360C0080536DE7164A536823F480536FE7144ACE
:10361C00536843F0E06343F4004361E7104A536896
:10362C0023F4004363E70E4A536823F0E06357E743
:10363C000B4A536823F0E06343F0807350E7084A69
:10364C00536823F0E06343F0007349E7044A53687E
:10365C0023F0E06343F0806342E700BF00100240B8
:10366C000000014091FAA1F3B3FA83F370B50D0E8B
:10367C000F2691FAA1F1B1FA81F144599B0006FA97
:10368C0003F3890024EA03048A402243425170BDAB
:10369C0091FAA1F3B3FA83F370B50D0E042691FAE7
:1036AC00A1F1B1FA81F144599B0006FA03F38900A8
:1036BC0024EA03048A402243425170BD431C04D0C7
:1036CC000C3151F80C3C5A1C01D10020704783423C
:1036DC0001F10C01F5D1012070470000431C2DE9CC
:1036EC00F34106460F4600D1FEE7594B00F00F029E
:1036FC00C0F3031001F0070853F82240FFF7C2FC97
:10370C00B8F1010F054615D194FAA4F3B3FA83F37B
:10371C000321200E2A589B0001FA03F322EA03022C
:10372C0094FAA4F3B3FA83F39B0099401143295004
:10373C00012213E0C7F30620B8F1030F0AD801A346
:10374C0053F828F0633700083D370008C7370008E6
:10375C00D5370008FEE7FFF789FE082221462846E8
:10376C0008F1FF38FFF77EFFB8F1010F06D817F00C
:10377C00080218BF04222146FFF78AFF94FAA4F22C
:10378C00230EB2FA82F2E9580F239200934094FA76
:10379C00A4F2B2FA82F2C7F301170B409200012F88
:1037AC0023FA02F312D0022F3BD0082B21D1042292
:1037BC0021462846FFF756FF1BE07F2801D109223E
:1037CC00CCE7FFF753FEFAE70022C7E7042B04D13E
:1037DC00082221462846FFF745FF230A93FAA3F354
:1037EC00B3FA83F20123E968934021EA14210B43D5
:1037FC00EB60184B9A6942F001029A619B6903F0E5
:10380C0001030193019BA6F10D03012B14D8124A5D
:10381C00536823F0E06343F08063536002B0BDE86B
:10382C00F081042B04D1082221462846FFF71AFF09
:10383C00EB6823EA1423DBE70F2E02D0133E012E94
:10384C00ECD8054A536823F0E06343F00073E4E7D7
:10385C00584800080010024000000140431C06D1EB
:10386C007047834202D18968FFF738BF0C310B686F
:10387C005A1CF6D1FEE70B685A1C01D10020704788
:10388C00834201D1486870470C31F4E7431C01D0E6
:10389C00FFF7F1BF002070474B6813B94FF0FF30B2
:1038AC007047834201D1086870470C31F4E708B1C6
:1038BC00FFF7F2BF4FF0FF30704703460868421C19
:1038CC0000D17047984201D1886870470C31F5E7F8
:1038DC00431C01D0FFF7F1BF704700000F4B1A6873
:1038EC0042F001021A6059680D4A0A405A601A687F
:1038FC0022F0847222F480321A601A6822F4802238
:10390C001A605A6822F4FE025A604FF41F029A6041
:10391C004FF00062034B9A60704700BF00100240EA
:10392C000000FFF800ED00E00438704703681D4A02
:10393C0084B093420BD11C4B9A6942F400629A6199
:10394C009B6903F400630093009B04B07047B3F1D0
:10395C00804F0BD103F50433DA6942F00102DA61CE
:10396C00DB6903F001030193019BEEE70F4A9342DD
:10397C000AD10D4BDA6942F00202DA61DB6903F01D
:10398C0002030293029BE0E7094A9342DDD1064B06
:10399C00DA6942F00402DA61DB6903F00403039391
:1039AC00039BD2E7002C01400010024000040040B1
:1039BC00000800400368124A934206D102F56442A3
:1039CC00936923F4006393617047B3F1804F05D181
:1039DC000C4AD36923F00103D36170470A4A93421E
:1039EC0005D102F50332D36923F00203F4E7074A49
:1039FC009342F2D102F50232D36923F00403EBE7D0
:103A0C00002C01400010024000040040000800405F
:103A1C00431C10D00C4B984210D007D8B0F1804FFB
:103A2C000ED0A3F5806398420CD0FEE7074B98426A
:103A3C00FBD1192070476FF00D0070471E207047A6
:103A4C001C2070471D20704700080040002C0140CE
:103A5C00431C10D00C4B984210D007D8B0F1804FBB
:103A6C000ED0A3F5806398420CD0FEE7074B98422A
:103A7C00FBD11B2070476FF00D0070471E20704764
:103A8C001C2070471D20704700080040002C01408E
:103A9C0038B50446FFF74AFF0068FFF7B9FFD4E9D1
:103AAC001212FCF7F9FD2068FFF7B2FFFCF724FEB9
:103ABC0022681046FFF7CCFF05461046FFF7A8FF1B
:103ACC0085420BD0D4E912122846FCF7E5FD20689C
:103ADC00FFF7BEFFBDE83840FCF70EBE38BD000056
:103AEC00431C0CD0094B98420BD007D820F48063B0
:103AFC00B3F1804F07D0064B984204D0FEE700206C
:103B0C007047022070470120704700BF002C014015
:103B1C000008004008B50649FFF7DAFEC0F3C430D0
:103B2C00431E032B00D9FEE78000043808BD00BFFC
:103B3C002849000808B5074B90F8652053F8220077
:103B4C00FEF704FF00F02200A0F122035842584176
:103B5C0008BD00BFE802002008B5074B90F86520AF
:103B6C0053F82200FEF7F2FE00F02100A0F1210331
:103B7C005842584108BD00BFE802002038B5154630
:103B8C000446B8B1016590F96400FCF7C3FDB4F8C4
:103B9C007630E16E9BB294F865001944064BAAB2DC
:103BAC0053F82000FEF7DAFC94F96400BDE83840C5
:103BBC00FCF7A2BD38BD00BFE802002048B1836D00
:103BCC00013306D190F86520024B53F82200FEF722
:103BDC008DBE7047E802002048B1836D013306D1D9
:103BEC0090F86520024B53F82200FEF797BE704701
:103BFC00E8020020836C04381847C36C043818475B
:103C0C0030B5044650F8043985B01D6815F001052F
:103C1C0012D0002200921A6800925B680093009BFD
:103C2C00FFF788FF40BB0122204604F1620105B07A
:103C3C00BDE83040FEF7A9BE196811F0020106D0AC
:103C4C0001951A6801925B680193019BE8E71A6879
:103C5C0012F0040206D002911A6802925B68029379
:103C6C00029BDDE719680907DAD503921A680392FB
:103C7C005B680393039BD3E705B030BD08B52520E3
:103C8C00FCF76EFD024B1868BDE80840FEF7E4BC7B
:103C9C00E8020020262008B5FCF762FD034B5868AB
:103CAC0018B1BDE80840FEF7D7BC08BDE8020020FB
:103CBC00272008B5FCF754FD034B986818B1BDE8F4
:103CCC000840FEF7C9BC08BDE802002003460A49BB
:103CDC0010B508680344EFF30882934205D90C220F
:103CEC004FF0FF30054B1A6010BD054A054C121BF6
:103CFC009342F4D20B60F7E72C0000206005002003
:103D0C000050002000040000FEE700001622024BC9
:103D1C004FF0FF301A60704760050020012070479B
:103D2C0010B594B0142200210CA800F071FC1422E0
:103D3C0000210DEB020000F06BFC1022002101A809
:103D4C0000F066FC02244FF480330122CDE91143CC
:103D5C00CDE90A234FF4E0130AA80E921393FDF752
:103D6C00A3FC00B1FEE70F23CDE905344FF48063CB
:103D7C000790CDE90830214605A8FDF757FE00B1A4
:103D8C00FEE7122301934FF40043CDE9033001A861
:103D9C00FDF726FF00B1FEE714B010BD10B50446C8
:103DAC0000F0A4F9E060236820465B69984700287E
:103DBC0008DA00F09BF9E368C01AA3689842F2D3C2
:103DCC004FF0FF3010BDF8B507460D460C468E1867
:103DDC00B44201D1601BF8BD3846FFF7DFFF431C2E
:103DEC00F8D004F8010BF3E72DE9F04107468846BB
:103DFC0016461D4673B100243846FFF7CFFF431C0F
:103E0C0005D0404503D030550134A542F4D12046AD
:103E1C00BDE8F0811C46FAE708B50320FCF72AFC44
:103E2C00BDE8084000F072B908B5AFF30080FCF7AC
:103E3C00A5F9FCF785F900F05BF9FAE7C0F303127A
:103E4C00042A034610B50ED80020084AD9B252F8FD
:103E5C00044B8C4203D103F4E063184310BD0130D2
:103E6C002328F4D1FAE72320F8E700BF544B0008CD
:103E7C00FFF734FD0B480C490C4A002302E0D458E0
:103E8C00C4500433C4188C42F9D3094A094C00239A
:103E9C0001E013600432A242FBD300F0D1FBFFF728
:103EAC00C3FF7047000000208C0000202C4C000841
:103EBC008C00002068050020FEE791420FD008D945
:103ECC000123891A8B40984208D30130C84001382D
:103EDC00704720B10130521A9040F8E7002070472B
:103EEC00C3B2222B2DE9F04107460E4631D82C4A9D
:103EFC0000F4E06452F823301C43621C4ED0204680
:103F0C002849FFF7DBFBDFF8A0800546002831D0FD
:103F1C00264AC4F3031152F8210004F00F0520FACD
:103F2C0005F3DB075FBF0123AB40034342F82130AD
:103F3C001F4BD8F800101D6830462A46FFF7BDFF0E
:103F4C001C490246EBB22046BDE8F0410968FFF778
:103F5C00EDB800F0C002C02A20D1C92B1ED8164BD8
:103F6C0000F03F0253F822200D4B00F4E06453F8AC
:103F7C002230C1E73846012100F020F8D8F80010B3
:103F8C0030460822FFF799FF7F2898BF294638460C
:103F9C00BDE8F04188BF012100F06EB8BDE8F081AA
:103FAC00544B00082849000838000020F402002077
:103FBC0034000020300000202C4B0008C3B2222B10
:103FCC002DE9F0410D462AD8274A00F4E06452F856
:103FDC0023301C43621C44D0244EC4F3031756F800
:103FEC00273004F00F0823FA08F3DB0710D520461E
:103FFC001F49FFF763FB10B12046FFF7E7F80122DA
:10400C0056F8273002FA08F223EA020346F8273062
:10401C00052D15D8DFE805F015211B1D1F2300F019
:10402C00C002C02A1DD1C92B1BD8124B00F03F0275
:10403C0053F822200C4B00F4E06453F82230C8E70C
:10404C00FEE700212046BDE8F041FFF747BB1021F9
:10405C00F8E72021F6E70321F4E70121F2E7092133
:10406C00F0E7BDE8F08100BF544B0008F4020020DB
:10407C00284900082C4B0008C3B2222B1BD8174A26
:10408C0000F4E06052F823301843431C25D0C0F3F1
:10409C000313042B98BF124A00F00F0098BF52F87C
:1040AC002320104B88BF002253F82030C3F30F237A
:1040BC0091B11361704700F0C002C02A0DD1C92B19
:1040CC000BD8094B00F03F0253F82220034B00F4AD
:1040DC00E06053F82230D7E753617047544B000827
:1040EC000C000020584800082C4B0008FFF79AB829
:1040FC0008B5044B2BB1044800F00AF808B1AFF333
:10410C00008008BD0000000008030020FFF7D6B8AF
:10411C00B0F80831B0F80421981A00F03F0070474D
:10412C00B0F80831B0F804219BB293421ABFD0F812
:10413C00FC30985C4FF0FF30704790F80631B0F8C7
:10414C000A01C0B2834227BFC3F13F03C018C01A93
:10415C0000F1FF30704707B503688DF80710012296
:10416C005B680DF10701984703B05DF804FB000094
:10417C00B0F87610826F10B50A4402F03F02A0F836
:10418C007620B0F87610B0F8722089B28A421AD034
:10419C00B0F876404032A4B2B0F87610121B5442FC
:1041AC0089B204F03F0402F03F02C1F1400158BF54
:1041BC0062428A4228BF0A4604498267FFF7DEFC46
:1041CC004FF0FF3010BD0020FCE700BF7D41000820
:1041DC002DE9F843036804469B68884616469847C1
:1041EC0001232374D4F8EC30B4F806710133814602
:1041FC00C7F1400709D194F8113133B1002304F110
:10420C00940084F81131FFF7D9FC236820469B6891
:10421C0098470028F9D03546BD4225D84D4523D8BE
:10422C00B4F80631D4F800015A19402A184430D891
:10423C002A46414600F02AFA2F46B4F806311D44AE
:10424C0005F03F05A4F8065104F194052846FFF744
:10425C0083FC30B93A4628461549C4F80C71FFF76F
:10426C008DFC3046BDE8F8834F4528BF4F46236888
:10427C003A4641465B6820469847236820469B682F
:10428C009847ED1BB844B4F806718146C7F1400756
:10429C00C2E7C3F140073A46414600F0F7F9D4F8BB
:1042AC000001EA1B08EB070100F0F0F9C5E700BFBD
:1042BC007D410008C0F8F030009B914208BF4FF0E0
:1042CC00FF31C0F8F43000F11403C0F8FC300023C7
:1042DC00C0E93A2100F15402A0F80831C0E94023AA
:1042EC00A0F80A3170470000F7B54FF47A731746FF
:1042FC000022C0E901231C4B044603604FF0FF333E
:10430C00C0F8EC30194B1A4E9C420D46F06A05D1A0
:10431C00B36AC4F8EC30C4F8E8000AE01549FFF7BA
:10432C00B5FA854215D1B36AC4F8EC30F36AC4F817
:10433C00E8304FF0FF33012F08BFC4F8EC30009386
:10434C002046D4E93A214FF0FF33FFF7B3FF03B017
:10435C00F0BD28460849FFF7AAFA0649C4F8EC0054
:10436C002846FFF7A4FAD6E7E84B0008080300201C
:10437C00544B0008EC480008B0480008037C70B5AA
:10438C0004460D46A3B1FCF76FF90646B4F80621B6
:10439C00B4F80A319BB29A420AD0002DF8D0FCF73F
:1043AC0063F9801B8542F1D8B4F80A31A4F80631C0
:1043BC0070BD0021FFF7E2BFD0F8EC3010B501332F
:1043CC0004460ED10368DB68984794F8113143B961
:1043DC00012304F1940084F81131BDE81040FFF77B
:1043EC00FBBB10BD10B50446FFF7E6FFB4F808217F
:1043FC00B4F8043192B29A4217BFD4F8FC204FF0B3
:10440C00FF30D05C01331CBF03F03F03A4F8043130
:10441C0010BD0000002202490248FFF765BF00BF33
:10442C000038014008030020024B0146186800F0D8
:10443C002DB800BF3C000020024B0146186800F06C
:10444C0033B900BF3C00002070B50F4E0C463168EC
:10445C00054611B900F0E4F830602146284600F01A
:10446C00DFF8431C03D14FF0FF34204670BDC41C51
:10447C0024F00304A042F8D0211A284600F0D0F80A
:10448C000130F2D1EFE700BF200400202DE9F84302
:10449C00CD1C25F0030508350C2D38BF0C25002D3F
:1044AC00064601DBA94204D90C2333600020BDE889
:1044BC00F883DFF8D48000F069F8D8F800301C4697
:1044CC0044BB29463046FFF7BFFF431C044658D176
:1044DC00D8F800402746002F43D1002C4BD023683E
:1044EC003946304604EB030900F09AF8814542D175
:1044FC00216830466D1A2946FFF7A6FF01303AD0E5
:10450C0023682B442360D8F800305A6862BBC8F883
:10451C0000700FE02268521B20D40B2A17D96119A6
:10452C00A342256018BF5960636808BFC8F8001023
:10453C0062514B60304600F02FF804F10B00231D44
:10454C0020F00700C21A1CBF1B1AA350AFE7626809
:10455C00A3420CBFC8F800205A60EBE723466468FE
:10456C00AEE73C467F68B6E71A465B68A342FBD1D0
:10457C0000235360DEE70C233046336000F00CF868
:10458C0094E70560D6E700BF24040020014800F042
:10459C007BB800BF64050020014800F076B800BF6E
:1045AC0064050020024B0A460146186800F002B868
:1045BC003C0000202DE9F041074614460D4621B978
:1045CC001146BDE8F041FFF761BF2AB900F06CF865
:1045DC0025462846BDE8F08100F0AEF88442064638
:1045EC0002D8B4EB500FF4D821463846FFF74EFFF3
:1045FC00804608B94546ECE7B4422246294628BF16
:10460C00324600F043F82946384600F04DF8F1E701
:10461C0003460244934200D1704703F8011BF9E7AB
:10462C0038B50023054D044608462B60FFF74EFBBA
:10463C00431C02D12B6803B1236038BD60050020F8
:10464C0070B500260C4D0D4B5B1B9C10A64209D17E
:10465C00002600F0C9F80A4D0A4B5B1B9C10A642C1
:10466C0005D170BD55F8043B98470136EEE755F877
:10467C00043B98470136F2E70C4C00080C4C000840
:10468C000C4C0008204C0008704770470A449142BB
:10469C0000F1FF3300D1704710B511F8014B914276
:1046AC0003F8014FF9D110BD38B50546002940D0AB
:1046BC0051F8043C0C1F002BB8BFE418FFF766FF41
:1046CC001C4A136833B9636014602846BDE838404F
:1046DC00FFF762BFA34208D9206821188B4201BFA3
:1046EC0019685B6809182160EDE71A465B680BB125
:1046FC00A342FAD911685018A0420BD1206801448A
:10470C00501883421160E0D118685B68084410604F
:10471C005360DAE702D90C232B60D6E72068211806
:10472C008B4201BF19685B68091821606360546093
:10473C00CBE738BD2404002051F8043C181F002B93
:10474C00BCBF0B58C0187047062008B500F02CF8F9
:10475C000120FFF7D9FA1F2938B505460C4604D9B4
:10476C00162303604FF0FF3038BDC26B12B152F804
:10477C0021304BB9284600F031F822460146284634
:10478C00BDE8384000F018B8012B0AD0591C03D1F1
:10479C00162303600120E7E70021204642F824108D
:1047AC0098470020E0E70000024B01461868FFF72D
:1047BC00D2BF00BF3C00002038B50023064D044694
:1047CC00084611462B60FFF7A1FA431C02D12B6857
:1047DC0003B1236038BD00BF60050020FFF79EBA0F
:1047EC0008B5FFF7B1FF0000F8B500BFF8BC08BC76
:1047FC009E467047F8B500BFF8BC08BC9E46704793
:10480C00000000000000000067030008A903000876
:10481C00CD0100080B040008D1010008D9010008E3
:10482C00F3010008D33D0008F53D00080102020326
:10483C000405060708090A0B0C0D0E0F10100201D7
:10484C0004030204081004004000000401010000ED
:10485C000202000004040000080800001010000010
:10486C002020000040400000808000000100010476
:10487C0002000204040004040800080410001004E0
:10488C002000200440004004800080040000000050
:10489C0001020304000000000000000001020304F8
:1048AC00060708090300000000440040100800003F
:1048BC000A0000000038014010060000170000003C
:1048CC0000380140100500001B00000000480040AB
:1048DC0010000000FFFFFFFF0000000000000000C0
:1048EC000200000000440040120800000900000013
:1048FC00003801401206000016000000003801408C
:10490C00120500001A0000000048004012000000D0
:10491C00FFFFFFFF0000000000000000000000008F
:10492C000000004012800000000100000000004068
:10493C001290000001000000000000401212010063
:10494C0001010000000000401210010002000000F4
:10495C000000004012920100020100000000004023
:10496C00129101000300000000000040121202002E
:10497C0003010000000000401211020006000000BC
:10498C00000400401295000007000000002C0140BC
:10499C00128D1000070100000004004012150100E8
:1049AC0008000000002C0140128E000008010000DD
:1049BC00002C0140128D000009000000002C014069
:1049CC00120E010009010000002C0140120D010023
:1049DC000A000000002C0140128E01000A010000A8
:1049EC00002C0140128D01000B000000002C014036
:1049FC00120E02000B010000002C0140120D0200EF
:104A0C000F00000000000040129100000F01000098
:104A1C0000000040128F000010000000002C01402C
:104A2C00120D11001001000000040040129501004D
:104A3C00100200000004004012940100110000005C
:104A4C00002C0140128D11001101000000040040E7
:104A5C0012150200110200000004004012140200A2
:104A6C0013000000000000401211010013010000AF
:104A7C0000000040120F0100140000000004004070
:104A8C0012940000150000000004004012140100F4
:104A9C0016000000000800401297000017000000EC
:104AAC000008004012170100180000000008004028
:104ABC0012970100190000000008004012170200B4
:104ACC001A00000000000040129001001A010000C2
:104ADC0000000040128F01001B000000000000408D
:104AEC00121002001B01000000000040120F020017
:104AFC001D000000002C0140128E10001E00000052
:104B0C00002C0140120E11001F000000002C01406F
:104B1C00128E1100FFFFFFFF0000000000000000DC
:104B2C001400000015000000160000001700000023
:104B3C0018000000190000001A0000001B00000003
:104B4C001C0000001D0000001900000018000000EF
:104B5C0017000000160000001500000014000000F3
:104B6C00130000000F0000000C0000000B00000000
:104B7C000A00000009000000080000001F000000EF
:104B8C001E0000001D0000001C0000002D00000095
:104B9C002E0000002F0000000000000001000000AB
:104BAC0002000000030000000400000005000000EB
:104BBC0006000000070000001000000011000000BB
:104BCC001A0000001B000000120000000D00000085
:104BDC000E0000000000000000000000634100080F
:104BEC00DD41000847410008BF4300081D41000893
:104BFC00F14300082D410008D33D0008F53D0008A5
:104C0C00253E000831010008250400088533000802
:044C1C002144000827
:0C4C20000D010008350400085D34000898
:104C2C00C800000001000000100000000008014056
:104C3C00000C01400010014000140140001801401C
:104C4C00003002400000000000127A0068050020CD
:104C5C00E8030000080000000800000040000020ED
:104C6C00000000002804002090040020F80400201C
:104C7C000000000000000000000000000000000028
:104C8C000000000000000000000000000000000018
:104C9C000000000000000000000000000000000008
:0C4CAC00000000000000000000000000FC
:0400000508003E7D34
:00000001FF
